:020000040800F2
:10000000F8050020CD010008D1010008D301000847
:10001000D5010008D7010008D90100080000000040
:10002000000000000000000000000000DB010008EC
:10003000DD01000800000000DF010008E101000808
:10004000E3010008E3010008E3010008E301000800
:10005000E3010008E3010008E3010008E3010008F0
:10006000E3010008E3010008E3010008E3010008E0
:10007000E3010008E3010008E3010008E3010008D0
:10008000E3010008E3010008E3010008E3010008C0
:10009000E3010008E3010008E3010008E3010008B0
:1000A000E3010008E3010008E3010008E3010008A0
:1000B000E3010008E3010008E3010008E301000890
:1000C000E3010008E3010008E3010008E301000880
:1000D000E301000869100008E3010008E3010008DB
:1000E000E3010008E3010008E3010008E301000860
:1000F000E3010008E3010008E3010008E301000850
:10010000E3010008E3010008E3010008E30100083F
:10011000E3010008E3010008E3010008E30100082F
:10012000E3010008E3010008E3010008E30100081F
:1001300000F002F800F03AF80AA090E8000C8244BF
:100140008344AAF10107DA4501D100F02FF8AFF29C
:10015000090EBAE80F0013F0010F18BFFB1A43F0A5
:1001600001031847683C0000883C0000103A24BF97
:1001700078C878C1FAD8520724BF30C830C144BF0C
:1001800004680C607047000000230024002500264E
:10019000103A28BF78C1FBD8520728BF30C148BFEA
:1001A0000B6070471FB51FBD10B510BD00F040F8C3
:1001B0001146FFF7F7FF01F007F900F05EF803B40E
:1001C000FFF7F2FF03BC01F005F800000848004704
:1001D000FEE7FEE7FEE7FEE7FEE7FEE7FEE7FEE7F7
:1001E000FEE7FEE703480449024A044B704700005B
:1001F00031010008F8010020F8050020F801002076
:100200007047704770477047704710B500F008F8A6
:10021000006810BD10B5044600F002F8046010BD7F
:10022000004870479801002000487047980100205E
:100230007546FFF7F9FFAE4605006946534620F0C4
:100240000700854618B020B5FFF7CCFFBDE8204079
:100250004FF000064FF000074FF000084FF0000B82
:1002600021F00701AC46ACE8C009ACE8C009ACE835
:10027000C009ACE8C0098D4670470446AFF3008062
:100280002046FFF79CFF00002DE9F05F82460F46F5
:1002900014462046E21704EB5272D2102146E317AF
:1002A00004EB5373DB10A4EBC3030BB1012300E099
:1002B00000231A44624302F0FF099AF800600AF131
:1002C000010082460578812E05DB402D03DBFF2DE2
:1002D00001D0FF2E0DD14FF0000B06E0002007F8F3
:1002E000010B0BF1010000F0FF0BCB45F6DBBDE885
:1002F000F09F7F2D03DAA5F14000C5B202E0A5F121
:100300004100C5B2A6F18100C6B2BE2000FB065076
:1003100000FB09F80C2C04D0102C0CD0182C1ED18A
:1003200013E01048D0F8090000EB08014A463846AF
:1003300000F004FF13E00B48D0F8110000EB0801B7
:100340004A46384600F0FAFE09E00648D0F819009F
:1003500000EB08014A46384600F0F0FE00BF00BF3F
:1003600000BFC4E77601002070B5044600260948A6
:100370000588408845430021084600F011FB00F045
:1003800029FC00BF02E004480480761CAE42FAD388
:1003900070BD0000680100200008006C10B5044624
:1003A000ACB9002016498871F02008804FF4A07085
:1003B00048800846808849F2413188421CD12C206F
:1003C0000F4908812A2048812B20888114E00120D0
:1003D0000B4988714FF4A0700880F02048800846CF
:1003E000808849F24131884206D12C200449088195
:1003F0002A2048812B208881002000F059FA10BD66
:100400006801002010B503460C460D49488900F0EC
:10041000DBFB181200F0D2FBD8B200F0CFFB08498A
:10042000888900F0D1FB201200F0C8FBE0B200F098
:10043000C5FB0348008903490880881C028010BD61
:1004400068010020FE07006C10B5FE48406940F4CA
:100450008070FC4948610846806940F00800886166
:100460000846806940F0200088610846806940F0B5
:10047000400088610846806940F480708861F248D5
:10048000006820F00F00F04908600846006840F05E
:1004900003000860ED480068ED490840EB4908603A
:1004A00008460068EB490843E8490860081F0068EF
:1004B00000F0FF20091F08600846006840F0BB10EC
:1004C0000860E54800680020E349086008460068C5
:1004D00040F0BB300860081F006820F07040091F22
:1004E00008600846006840F030400860DB4840681B
:1004F00020F47020D94948600846406840F4302014
:1005000048600846006820F00F0008600846006850
:1005100040F00B00086000204FF020418861C86166
:10052000CF4908604FF02040806940F480504FF080
:10053000204188610846806940F48040886108460F
:10054000806940F0100088610846C069C8610846AB
:10055000C06940F00100C8610846C06940F470609D
:10056000C861BF480068C1F81C01BD480068C1F8F7
:100570001C010846D0F81C0140F44070C1F81C0171
:100580000846806940F001008861322000F0ACFE2E
:10059000002000F081F9B349888008468088FF2850
:1005A0000ADB084680884FF6FF71884204D0AD48C8
:1005B0008088B0F5134F1DD1D32000F005FB00F06B
:1005C00061F9A849888000F05DF9A649888000F0AB
:1005D00059F9A4498880084680884FF6FF7101EADE
:1005E0000020A049888000F04DF99E498988084381
:1005F0009C4988809B48808849F2413188427CD15F
:10060000CF2000F0E1FA002000F0D8FAC12000F07D
:10061000D5FA302000F0D2FAED2000F0D5FA6420AF
:1006200000F0CCFA032000F0C9FA122000F0C6FA5C
:10063000812000F0C3FAE82000F0C6FA852000F01F
:10064000BDFA102000F0BAFA7A2000F0B7FACB20F9
:1006500000F0BAFA392000F0B1FA2C2000F0AEFA1E
:10066000002000F0ABFA342000F0A8FA022000F0DD
:10067000A5FAF72000F0A8FA202000F09FFAEA205F
:1006800000F0A2FA002000F099FA002000F096FA9B
:10069000C02000F099FA1B2000F090FAC12000F071
:1006A00093FA012000F08AFAC52000F08DFA30207C
:1006B00000F084FA302000F081FAC72000F084FABC
:1006C000B72000F07BFA362000F07EFA482000F0D8
:1006D00075FA3A2000F078FA552000F06FFAB12050
:1006E00000F072FA002000F069FA1A2000F066FAB1
:1006F000B62000F069FA0A2000E097E000F05EFA08
:10070000A22000F05BFAF22000F05EFA002000F078
:1007100055FA262000F058FA012000F04FFAE020A8
:1007200000F052FA0F2000F049FA2A2000F046FAB1
:10073000282000F043FA082000F040FA0E2000F0D4
:100740003DFA082000F03AFA542000F037FAA920C8
:1007500000F034FA432000F031FA0A2000F02EFABB
:100760000F2000F02BFA002000F028FA002000F003
:1007700025FA002000F022FA002000F01FFAE12004
:1007800000F022FA002000F019FA152000F016FA05
:10079000172000F013FA072000F010FA112000F0E3
:1007A0000DFA062000F00AFA2B2000F007FA562076
:1007B00000F004FA3C2000F001FA052000F0FEF9F8
:1007C000102000F0FBF90F2000F0F8F93F2000F0B6
:1007D000F5F93F2000F0F2F90F2000F0EFF92B209F
:1007E00000F0F2F9002000F0E9F9002000F0E6F94D
:1007F000012000F0E3F93F2000F0E0F92A2000F0AA
:10080000E3F9002000F0DAF9002000F0D7F9002029
:1008100000F0D4F9EF2000F0D1F9112000F0D4F964
:10082000782000F061FD292000F0CEF90020FFF7CC
:10083000B5FD01200C4908604FF6FF70FFF794FDED
:1008400010BD000000100240000C014004140140E3
:1008500000F0FF00BB0B00BB04180140002001406A
:100860001C0100A0680100208081214210B50246D1
:10087000012000E050430B00A1F10104E1B2F9D1E5
:1008800010BD000008B5034800880090BDF80000C6
:1008900008BD00000008006C10B50446204600F0BA
:1008A00093F9052000F03EFDFFF7ECFF10BD0000BE
:1008B00030B504460023002538488079012818D136
:1008C000082C15D2DFE804F00406080A0C0E1012FA
:1008D00006240DE007240BE0042409E0052407E0CA
:1008E000012405E0002403E0032401E0022400BF0A
:1008F00000BF082C1CD2DFE804F00406090C0F121C
:10090000151800BF14E043F0800311E043F04003EA
:100910000EE043F0C0030BE043F0200308E043F097
:10092000600305E043F0A00302E043F0E00300BFF2
:1009300000BF36251946284600F056F91749488960
:1009400000F042F9002000F039F9002000F036F9FB
:1009500012490988491EC1F30F2000F02FF90F49F1
:100960000978491EC8B200F029F90C49888900F0BD
:100970002BF9002000F022F9002000F01FF90749B0
:100980004988491EC1F30F2000F018F903498978FE
:10099000491EC8B200F012F930BD00006801002005
:1009A00000B502460B460A49488900F00DF91012BD
:1009B00000F004F9D0B200F001F90549888900F08F
:1009C00003F9181200F0FAF8D8B200F0F7F800BDF9
:1009D000680100202DE9F84F80460E4617461C4658
:1009E000B3462046E31704EB5373DB1021464FEA6E
:1009F000E47C04EB5C7C4FEAEC0CA4EBCC0CBCF18B
:100A0000000F02D04FF0010C01E04FF0000C6344E6
:100A1000224604EBD27C4FEA6C0C03FB0CF3DBB2F6
:100A20000093A7F12000C7B2002556E00C2C07D197
:100A300007EB47002B4901EB800010F8059013E00D
:100A4000102C05D1284800EB071010F805900BE09A
:100A5000182C07D107EBC700244901EB800010F8E0
:100A6000059001E0BDE8F88F4FF0000A2FE009F093
:100A7000800030B11E48028831464046FFF7C2FC74
:100A800007E00A9828B91B48028831464046FFF71C
:100A9000B9FC4FEA49604FEA1069701C86B21648EB
:100AA0004088B04200DCDDE7A6EB0B00A0420AD193
:100AB0005E4608F101001FFA80F80F4800884045A3
:100AC00000DCCFE706E00AF1010000F0FF0ABAF10E
:100AD000080FCCDB00BF681CC5B200988542A5DBBF
:100AE00000BFBFE70A2600087E2A00086E30000813
:100AF0000A0000200C000020680100202DE9FF4FB3
:100B000082B0064692461F46DDE90F48002001905C
:100B100000254DE0781B401EC1B20A20FFF7A6FE5B
:100B2000BAFBF0F00A21B0FBF1F201FB12090198C7
:100B300050BB781EA84227DDB9F1000F22D108F082
:100B4000800078B108F00100A34604EBDB71491086
:100B500001FB0561009088B2234630220399FFF71C
:100B600039FF0EE008F00100A34604EBDB714910E9
:100B700001FB0561009088B2234620220399FFF70C
:100B800029FF13E00120019008F00100A34604EBC7
:100B9000DB71491001FB0561009088B209F1300159
:100BA000CAB223460399FFF715FF00BF681CC5B200
:100BB000BD42AFDB06B0BDE8F08F00000149088000
:100BC000704700000008006C014908807047000071
:100BD000FE07006C02480089024908807047000047
:100BE00068010020FE07006C024A1080921C1180F0
:100BF00070470000FE07006C00B500201549086131
:100C0000C8601420486100208861C86108460068F7
:100C100040F001000860084640680F4908400D494F
:100C20004860084600680D4908400A4908600846BF
:100C3000006820F4802008600846406820F4FE0028
:100C400048600020886000214FF0006000F058F8F4
:100C500000BD0000001002400000FFF8FFFFF6FE9C
:100C60002DE9F0410746884614461D46284600F007
:100C700033F8C5F1040007FA00F60F20284100EA16
:100C80000800064306F00F06E21704EBD262521189
:100C9000920002F1E022D2F800212146E31704EB92
:100CA000D3635B11A4EB431C012303FA0CF31A4337
:100CB0002046E31704EBD3635B119B0003F1E023B1
:100CC000C3F800210348005D40EA061001490855B9
:100CD000BDE8F08100E400E00146072323EA0102B9
:100CE0001202054B18684FF6FF031840034B1843D8
:100CF0001043014B186070470CED00E00000FA054E
:100D0000024A0A400243024B1A60704780FFFF1FED
:100D100008ED00E000B52848806940F00800264949
:100D200088610846C06940F48040C8612348006873
:100D3000C0F31300214908600846006820490843B1
:100D40001E4908601D480830006840F460401B4997
:100D5000083108601B4800881A4908800846008846
:100D600040F4007008800846008840F480700880D5
:100D70000846008840F00400088008460088088083
:100D80000846008840F0020008800846008840F0CD
:100D9000010008800846008840F0180008800846D6
:100DA000008808800846008840F040000880FF2046
:100DB00000F00AF800BD000000100240040C0140E1
:100DC0000000B0BB003800400246002107E0481C8C
:100DD00081B24FF6FE70814201DB002070470F4860
:100DE000008800F002000028F1D00C48001D0280AD
:100DF000002107E0481C81B24FF6FE70814201DB02
:100E00000020EBE70548008800F001000028F1D041
:100E10000248001D0088C0B2E0E70000083800402A
:100E200000F00700084909884FF6C7721140064ACA
:100E300011801146098841EAC001118011460988D4
:100E400041F0400111807047003800402DE9FF4F0C
:100E500093B007460D461C46AA462046E21704EB0F
:100E60005272D2102146E31704EB5373DB10A4EB4C
:100E7000C3030BB1012300E000231A44624302F0D4
:100E8000FF0B0C2C06D0102C04D0182C02D017B05D
:100E9000BDE8F08F224601A91598FFF7F5F9002665
:100EA0002FE001A810F806804FF0000923E008F0B9
:100EB000800030B11548028829463846FFF7A2FA6B
:100EC00007E0209828B91248028829463846FFF7DB
:100ED00099FA4FEA48604FEA1068681C85B2A5EBA2
:100EE0000A00A04203D15546781C87B206E009F1FA
:100EF000010000F0FF09B9F1080FD8DB00BF701C3A
:100F0000C6B25E45CDDB00BFC1E700000A0000208D
:100F10000C0000202DE9FE4F07460E4691469A46EA
:100F2000DDE90D4B0C9DB8460296002001904CE087
:100F3000019870BB2878802802DD0120019044E0F0
:100F400004EBD47108EB0902A2EB6101B94202DAA9
:100F5000301986B2474602985044001BB04200DA6E
:100F600036E028780D2804D1301986B247466D1C2A
:100F700007E0CDF800B02A78234631463846FFF71F
:100F800029FD6D1C204604EBD07107EB61018FB287
:100F90001BE0FFE70020019008EB0900001BB842AE
:100FA00002DA301986B2474602985044001BB0421C
:100FB00000DA0DE023462A4631463846CDF800B027
:100FC000FFF744FFAD1C381987B228780028AFD14D
:100FD00000BFBDE8FE8F000030B504460025FFF7D6
:100FE0000BFE1F48006840F480301D49086000BFB8
:100FF0001B480068400C0028FAD04FF48060184964
:101000004860A01EC4B20846406840EA8440486078
:101010000846406840F4803048601248006840F05C
:101020003200104908600E48006840F080700C499A
:10103000086000BF0A480068400E0028FAD008483F
:10104000406840F002000649486005E004484068F6
:10105000C0F3870505F00305022DF7D130BD000070
:1010600000100240002002401D49098801F02001C3
:1010700011B31B49091D0988C8B21A49098801F42E
:101080000041C9B91749098801F4804161B10A28B2
:1010900003D00021134A118020E01249098841F44D
:1010A0000041104A118019E00D2806D10D49098828
:1010B00041F480410B4A118010E00A490988C1F3CC
:1010C0000D01094A505407490988491C054A1180F5
:1010D00011460988C72901DD0021118070470000F1
:1010E0000038014008000020A000002010B50F4883
:1010F000806940F008000D4988610D48006820F4BF
:1011000070200B4908600846006840F440300860D1
:10111000012008490860FFF7FDFD0020FFF780FE71
:1011200000F034F80449088010BD000000100240AF
:10113000040C0140B08121420E0000202DE9F04155
:1011400006460C46174600200F4908600320FFF7AB
:101150003BFEC4F30740FFF737FEC4F30720FFF759
:1011600033FEE0B2FFF730FE002505E0FF20FFF779
:101170002BFE7055681C85B2BD42F7DB0120024989
:101180000860BDE8F0810000B081214210B5002464
:1011900000200E4908609020FFF716FE0020FFF7A0
:1011A00013FE0020FFF710FE0020FFF70DFEFF20CA
:1011B000FFF70AFE44EA0024FF20FFF705FE044380
:1011C00001200349C1F8B001204610BDB081214281
:1011D00000802142014600BF70472DE9F04F87B0E3
:1011E00005460E4600210F4688460020814682466D
:1011F0000491059100243FE006EBC40005EBC40117
:10120000D0E900B303C95A46CDE9000100F08CFCD7
:101210003A464346CDE9020100F02EFA07468846D9
:1012200005EBC40003C8CDE9000105EBC400D0E91B
:1012300000BC0B4658466146009A00F075FC4A46D1
:101240005346CDE9020100F017FA81468A4606EBC3
:10125000C400D0E900B306EBC40003C85A46CDE988
:10126000000100F061FCCDE90201DDE9042300F09A
:1012700003FACDE90401641C092CBDDB4846514644
:10128000DDE9042300F050FCCDE9000100F060F935
:1012900002460B46CDE902013846414600F094FA79
:1012A00007B0BDE8F08F00004FF0E021096921F0A0
:1012B00004014FF0E0221161C21700EB5272C2F339
:1012C000C702074B1A701946097801EB4102C2EBBD
:1012D000C1114FF6FF7202EAC101024A1180704744
:1012E000000000200200002001460D4A12884A43F7
:1012F0004FF0E0235A6100229A6101221A6100BF77
:101300004FF0E022106900F001021AB100F48032BF
:10131000002AF5D000224FF0E0231A619A6170474D
:101320000200002001460D4A12784A434FF0E023A4
:101330005A6100229A6101221A6100BF4FF0E02237
:10134000106900F001021AB100F48032002AF5D0D1
:1013500000224FF0E0231A619A61704700000020DC
:1013600010B50024FFF7C2FE0FE0601CC4B22122BA
:101370004FF440010A48FFF7E1FE09480078AA2827
:1013800000D104E01420FFF7AFFF0A2CEDDB00BF13
:1013900003480078AA2801D0012010BD0020FCE7F6
:1013A000760100200EB50020182105A20B46CDE9DC
:1013B0000021029060221E215020FFF7ABFD0EBDE0
:1013C000504343CBE3B7A8000EB50920FFF704FE56
:1013D0004820FFF769FF4FF4E131482000F0DEF8C4
:1013E000FFF732F800BFFFF7BBFF0028FBD14FF635
:1013F000FF70FEF7B9FF0020182146A20B46CDE989
:1014000000210290F02201460C20FFF783FDFFF738
:10141000C9FF0020182144A20B46CDE9002102900B
:1014200090223C21FFF776FD0020182141A20B46B7
:10143000CDE90021029090229621FFF76BFD012457
:101440003BE0204600F05CFB3D4A02EBC40203C2D5
:10145000E01D00F03EFB3B4A02EBC40203C23848E9
:1014600000EBC400D0E90021104600F005FB074660
:1014700000201021CDE9001004EB840100EB4100B5
:1014800001233A465A21FFF739FB2E4800EBC401ED
:10149000D1E90021104600F0EFFA074600201021A4
:1014A000CDE9001004EB840100EB810002233A46F1
:1014B0007821FFF723FB601CC4B20A2CC1DB28E0B3
:1014C00020491F48FFF789FE05460E4600221E4BA5
:1014D0002846314600F028FB05460E46002018211C
:1014E0001AA20B46CDE9002102900A4696217820E7
:1014F000FFF710FD2846314600F0BEFA07460020EF
:10150000182104233A46CDE9001096219020FFF7D8
:10151000F5FAD5E74D61746C616220436F646572C2
:1015200020CAB5D1E9000000CAB5D1E9CAFDD7E9A2
:10153000A3BA0000BCC6CBE3BDE1B9FBA3BA00006F
:1015400010000020580000200088C340302E00000A
:101550002DE9F04106460F4600F0E4FB04000D467D
:1015600018BF0120284320F00040C0F17F6000F147
:10157000E040C00F0ED0301C18BF0120384320F0CF
:101580000040C0F17F6000F1E040C00F04BF0120C7
:10159000FEF740FE20462946BDE8F0812DE9F05FC8
:1015A00005460E46300100F0D1FE81462E4905FB6E
:1015B00001F000F0CBFE8246494600F0E5FD07460B
:1015C000384600F0A3FE84B2204600F0BFFE8346FA
:1015D000394600F09BFF82464FF0834100F0CAFE7F
:1015E000814600F093FE80464FF6FF7000EA041437
:1015F00004EB080084B21D48806940F004001B49D8
:1016000088610846806940F4804088611848006815
:1016100020F47F60164908600846006840F40B60BB
:1016200008601248C06840F480401049C86008460D
:10163000C06820F48040C8600E480480001D008807
:1016400042F20C0108430B49091D08800846008836
:1016500040F0200008800223252203210846FFF7DE
:10166000FFFABDE8F09F000040420F00001002406A
:10167000040801400838014010B591EA030F48BF43
:1016800083F0004300F13C84841A71EB030C05D213
:10169000121943EB0C03001B61EB0C01DFF824E192
:1016A0004FEA1154A4EB135C1EEA430F18BF9EEAE5
:1016B000445F73D023EA0E03DCF1200E21EA0451CB
:1016C00043F4801332D322FA0CFE10EB0E0023FAFF
:1016D0000CFE41EB0E01CCF1200E03FA0EFE10EBD6
:1016E0000E0051F10001B1F5801FCCF1200E32D275
:1016F00001EB045112FA0EF2BDE8104058BF7047DA
:10170000401C38BF5FEA420218BF7047002814BF70
:1017100020F0010041F100014FEA410313F5001FE1
:1017200038BF7047A1F1C04100F0F6BA012A43EB7F
:101730000302ACF1200CDCF11F0E32BF4FF0000EA3
:1017400023FA0CF310EB030041EB0451B4EB115FEF
:10175000D0D0A1EB045101F5801149085FEA3000B7
:1017600001EB04510ED350F1000038BF12FA0EFE07
:1017700008D1BDE81040C9E7401C38BF5FEA42020B
:10178000CAD1C3E7BDE810404FEA410313F5001F7B
:1017900038BF7047A1F1C04100F0BEBA9EEA445F75
:1017A00008D011EA5E0FBDE8104004BF01F000410F
:1017B00000207047BDE8104070B500F05FFA00BF30
:1017C00064FBBE3E0000E0FF2DE9C04130B4DFF80D
:1017D000A0C23CEA111418BF3CEA131400F0EC80DC
:1017E00081EA03051CEA111444EAD57418BF1CEA07
:1017F000131500F0C780A4EB05044FF0004545EA3F
:10180000C12145EAC32341EA505143EA525304F14E
:101810007F74994204F500344FEAC0204FEAC22297
:1018200008BF904200F09C804FEA13650FF240160B
:10183000765D4FEA134506FB05F7C7F1807706FB97
:1018400007F74FEAD737A7FB03687642C8F5803819
:10185000A7FB06CE38BFA8F1010807FB08E64FF04A
:10186000000EA6FB028CE6FB03CEDCF1000CCEF1F1
:10187000004E38BFAEF1010EA6FB0C584FF000072A
:101880004FF00005E6FB0E87A1FB08C6A0FB07CEC4
:1018900016EB0E0645F10005E1FB076515F1E04E7C
:1018A0007EBFA4F580345FEA46066D4116F18007DD
:1018B00045F100054FEA17274FEA066647EA056734
:1018C000A6F1DE46B6F1805F4FEA15251FD93846EE
:1018D00024F0010C05EBC471BCF1FE6F01EB0C119F
:1018E00002D8F0BCBDE8008124425CBF01F5801E37
:1018F0009EEAC47F02D4F0BCBDE80081244238D403
:10190000F0BCA1F1C041BDE8004100F005BA4FEACA
:10191000D22242EA43524FEAD323A7FB02864FEA80
:10192000D02040EA415007FB03661EEA0E0F4FEA43
:10193000D12105FB026658BFA6EB0056B6EB005658
:101940004FEA520E4EEAC37E18EB0E0E56EB530EC4
:10195000BDD518EB02085E417F1C55F10005B6E7C6
:101960004FF480154FF000074FF000064FF00008CD
:10197000ADE7F0BC4FF0000001F1C04101F00041C3
:10198000BDE8008111EA0C1F0CEA131500D00CE031
:1019900013EA0C1F00F025804FF00000F0BC81EA34
:1019A000030101F00041BDE80081F0BCBDE8004149
:1019B00081EA030100F0B0B9F0BCBDE8004170B5A8
:1019C00000F05CF9097EFC3E00F007B881EA0301F3
:1019D0004FF0000001F00041704781EA030100F080
:1019E0009BB9F0BCBDE800414FF0000021497047B1
:1019F000FFFDFBF9F7F5F4F2F0EEEDEBE9E8E6E4D4
:101A0000E3E1E0DEDDDBDAD8D7D5D4D3D1D0CFCD5A
:101A1000CCCBCAC8C7C6C5C4C2C1C0BFBEBDBCBB93
:101A2000BAB9B8B7B6B5B4B3B2B1B0AFAEADACAB8E
:101A3000AAA9A8A8A7A6A5A4A3A3A2A1A09F9F9E68
:101A40009D9C9C9B9A99999897979695959493931A
:101A5000929191908F8F8E8E8D8C8C8B8B8A8989B1
:101A60008888878786858584848383828281818034
:101A70000000FF070000F87F4FEA1153A3F58063D1
:101A8000D3F11E03A8BFD3F1200C08DB4FF00042B6
:101A900042EAC12252EA505232FA03F07047094238
:101AA0000BD4102BC4BF0020704703F5787CBCF129
:101AB000FF3F05D04FF0FF3070474FF000007047F8
:101AC00070B500F0DBF800BF499224800020704719
:101AD000F0E710F0004248BF4042B0FA80F310FA3D
:101AE00003F10AD0C3F11D0303F580634FEA4150AF
:101AF00002EB035202EBD12170474FF00000704718
:101B0000B0FA80F310FA03F10AD0C3F11D0303F514
:101B100080634FEA41504FEA035202EBD1217047F4
:101B20004FF0000070470000DFF848C170B51CEAB4
:101B3000111E1EBF1CEA13159EEA0C0F95EA0C0F2E
:101B400000F06F8081EA030423EA4C134EEAD47E4E
:101B500021EA4C1141F4801143F48013AE44A1FBFF
:101B6000024CA0FB0365AEF17F7E361955EB0C05E8
:101B7000A1FB034C4CF10003A0FB021C16EB0C066E
:101B8000654153F10003094218BF46F0010613F402
:101B9000007F0BD14FEA03314FEA0530340341EAAD
:101BA000155140EA16506FF003020AE04FEAC321D4
:101BB0004FEAC520F40241EA555140EA56506FF011
:101BC000020202EB2E4201EB025585EACE710AD0E9
:101BD0005FEA440C18BF24F0004450F1000041F1CA
:101BE000000120EAD47040F2FE7C624500D270BD54
:101BF000A84214BF4FF080444FF04044002E08BF6D
:101C00000024BEF1806FA8BFA1F1C041BDE87040C3
:101C100080F282804FF0000001F1C04101F00041EC
:101C200070479EEA0C0F0CEA131518BF95EA0C0FCB
:101C300006D04FF0000081EA030E0EF0004170BDA7
:101C400000F01CF88900013E00F007B800F009B868
:101C50004FEA430C5FEA5C5C08D081EA030100F0C4
:101C60005BB84FEA410C5FEA5C5CF6D14FF00000D4
:101C7000014970470000FF070000F87F0EF1020ED7
:101C80002EF0030E5EF8046B364205D4012A43EBB6
:101C9000030515F5001F12D8012841EB010C1CF5B6
:101CA000001F0CD80ED14FEAD17C15F5001F0CEBAC
:101CB0004C0C0CF1020C08BF4CEBD37C04E04FF051
:101CC000080C01E04FEAD37C0CEB4C0526FA05F634
:101CD00006F00706B6F1040C06D20EEB860CBDE842
:101CE00070404CF0010C6047DFE80CF0090B020279
:101CF0004FF000414FF00000A1F5002170BD1946E2
:101D00001046012851EB010418BFD4F5001484BF1C
:101D1000002001F0004170BD0808A0F500114FEA55
:101D2000310170472DE9F04101F5801CBCF5001F21
:101D3000C0F2C3804FEA115C21EA0C510CF1FD0C9A
:101D400041F480115FEA5C0C0CF5C07C01D34000CB
:101D500049413DA4890241EA905187028E0E0A0C46
:101D6000A45D04FB04F602FB06F6C6F14046A4FBA4
:101D70000662F60D46EA422606FB06F4A4FB0123A2
:101D80005242C3F1404338BF5B1EA6FB024200240F
:101D9000E6FB0324D20B42EA4446A6FB0623A1FB42
:101DA00002E2A3FB07E4A4184FF0000252F1000284
:101DB000E3FB01426442C2F1404E38BFAEF1010E76
:101DC000A6FB04234FF00002E6FB0E32A2FB034603
:101DD0004FF00004B61954F10004E2FB0264A1FBC9
:101DE00006E6A4FB07E816EB08064FF0000858F1DA
:101DF0000008E4FB01687642C8F1405838BFA8F1FA
:101E00000108A2FB06E4A3FB08E52D194FF000042E
:101E100054F10004E2FB0854A1FB05E6A7FB04E82B
:101E200018EB06084FF0000656F10006E1FB0486A9
:101E300018F1200556F10006A809A8F11B08B10900
:101E400008F03F08B8F10A0F40EA86601CD901EBA0
:101E50000C51BDE8F08100BFFCF5EEE8E2DDD8D31F
:101E6000CFCBC7C3C0BDB9B6B4B1AEACA9A7A5A30B
:101E7000A19F9D9B9A9896959392908F8D8C8B891C
:101E80008887868584838281A0FB006800FB01F23D
:101E900008EB4208B8EB872807D5341858EB010443
:101EA000D5D5401C51F10001D1E7341A78EB01047B
:101EB000CDD4401E71F10001C9E75FEA4C0C5FEA26
:101EC0009C5C0DD105D34FF0000001F00041BDE84E
:101ED000F081BDE8F04170B5FFF7D0FE6DDBFFBECD
:101EE000BDE8F0414FF00000004970470000F87F66
:101EF00010B591EA030F48BF83F000433FF5C4AB30
:101F0000841A71EB030C07D212198CF0004C43EBCE
:101F10000C03001B61EB0C01DFF8A4E14FEA115444
:101F2000A4EB135C1EEA430F18BF9EEA445F00F067
:101F3000B08023EA6E03524221EA0451C3EB6E03E0
:101F400038BF5B1EDCF1200E25D322FA0CFE10EB0D
:101F50000E0043FA0CFE41EB0E01CCF1200E03FA09
:101F60000EFE10EB0E0051F10001CCF1200E29D431
:101F700012FA0EF201EB0451BDE8104058BF704751
:101F8000401C1CBFB2F1004F704700280CBF491C19
:101F900020F00100704712EB020E43EB030218BF62
:101FA0004FF0010E4EEA4202ACF1200CDCF11E0EA5
:101FB00054D943FA0CFE10EB0E0051F1FF31CCF175
:101FC0001E0ED5D50EF1010E12FA0EFE404141EB68
:101FD000010101EB445C5FEA5C5C10D910EBDE7040
:101FE00001EB045138BFBEF1004FBDE8104018BFEF
:101FF000704700280CBF491C20F00100704730D208
:102000004FEAD42C11F5001124F400641BD0B1FA6E
:1020100081F20B3AA41AA41ED2F12003914030FAA7
:1020200003F31943904001EBCC71002C01EB0451F8
:10203000BDE81040A8BF704701F1C0414FF000005B
:1020400001F000417047B0FA80F310FA03F100D1BB
:1020500010BDE41A173C4805C90AE4E701EB045136
:1020600010BD491001EB0451BDE810404FEA3000AB
:1020700002E04FF0000170474A0008BF0042F8D06C
:10208000B2F5001F28BF704701F000414FF000007B
:1020900070479EEA445F07D011EA5E0FBDE810402A
:1020A00004BF002100207047BDE8104070B5FFF765
:1020B000E5FD00BF40DFF63E83F00041104670476B
:1020C0000000E0FF90EA010F48BF81F0004100F1FD
:1020D0002E82421A3CBF801A89184FEAD0524FF024
:1020E0007F4C1CEA410FA2EBD15318BF9CEA026F50
:1020F00000F03B804FF0004C4CEA00204CEA0121FC
:1021000021FA03FC10EB0C0C1ED202F1FF325FEA45
:102110001C2040EBC25038BF70471CF07F0F4FEAC5
:10212000400C18BFBCF17F4F38BF7047C3F120038C
:10213000994008BF20F00100BCF17F4F38BF7047C5
:10214000A0F1C04000F0DDB94FEA3C00000A40EBCE
:10215000C25028BF1CF0FF0F4FEA400CE6D018BF5A
:10216000BCF17F4F38BF7047EAE79CEA026F05D0A9
:1021700010EA5C0F08BF00F00040704710B500F097
:102180007AF900BF64FBBE3E4FF47F0C1CEAD0120C
:102190001EBF1CEAD11392EA0C0F93EA0C0F00F059
:1021A000858090EA010F48BF42F4807240F4000C31
:1021B00041F400002CF07F4120F07F4000B58142C7
:1021C000A2EB03020FF2081CACEB504EC0F1000072
:1021D0009EF800E04FEA4E0E00FB0EFC38BF4900AF
:1021E0004FEA2C1C02F5FA020CFB0EF34FEACE1E4E
:1021F0004FEA112C4FEAC1210EEB635E42EB224203
:102200000EFB0CFC4FEA1C5300FB03114FEA112C90
:102210004FEA01310EFB0CFC4FEADC4C00FB0C11C9
:10222000C14228BF09184CEB03335DF804EB10EBF7
:10223000410143EBC250B2F57C0F38BF704729D53E
:1022400012F0F00F1CBF00F1C04000F000407047DA
:10225000008182838485868788898B8C8D8E8F917F
:102260009293959697999A9C9D9FA0A2A3A5A7A8A3
:10227000AAACAEB0B2B3B5B7B9BCBEC0C2C5C7C9CF
:10228000CCCED1D4D7D9DCDFE2E6E9ECF0F3F7FA33
:10229000FE0000004FEA400C0CF1807CBCF17E4F48
:1022A00028BF7047B0F1C04000F02BB990EA010F91
:1022B0000CEAD11348BF42F48072624538BF6345CF
:1022C00007D213F47F0F16D080EA010000F000401F
:1022D000704710B500F0CFF8097EFC3E00F005B85D
:1022E00080EA010000F00040704780EA010000F041
:1022F000004000F006B912F47F0F04BF0248704797
:1023000080EA010000F0FDB80000C07FC10DD1F1EE
:102310009E0206DB4FEA002343F0004323FA02F05B
:102320007047004207D54FEA4001B1F1FE4F02D29B
:102330004FF00000704710B500F09DF849922480DE
:10234000002070476FEA200070470000B0FA80F369
:1023500010FA03F2C3F19D030AD0D90501EB122054
:10236000530638BF704700F1010008BF20F001009C
:10237000704700004FF47F0C1CEAD0121EBF1CEA0D
:10238000D11392EA0C0F93EA0C0F00F0478090EA09
:10239000010F48BF42F480724FF0004C4CEA00201D
:1023A0004CEA012102EB0302A0FB0113A2F500029B
:1023B000002918BF43F001035B0028BF4FEA330335
:1023C00042EB22425FEA132C4CEBC2502EBFBCEB17
:1023D000436FB2F57C0F70474FEA036CBCF1004FBE
:1023E00008BF20F00100B2F57C0F38BF70470BD555
:1023F00082F0FF0212F5803FC8BF704700F1C04075
:10240000D8BF00F00040704700F5000C5FEA4C0CAC
:1024100048BF7047B0F1C04000F073B890EA010FB8
:102420000CEAD11348BF42F48072624538BF63455D
:1024300004D280EA010000F00040704710B500F0BF
:102440001AF800BF8900013E00F007B800F009B893
:102450005FEA410C5FEA1C6C08D080EA010000F0E2
:1024600050B85FEA400C5FEA1C6CF6D14FF00040B8
:10247000A0F5800070470EF1020E2EF0030E5EF8FC
:10248000044B244204D44FEA4102B2F17F4F11D8E9
:102490004FEA4003B3F17F4F0CD80ED14FEAD07C06
:1024A000B2F17F4F0CEB4C0C0CF1020C08BF4CEB63
:1024B000D17C04E04FF0080C01E04FEAD17C0CEB3A
:1024C0004C0324FA03F404F00704B4F1040C06D21C
:1024D0000EEB840CBDE810404CF0010C6047DFE8C7
:1024E0000CF0070802024FF00040A0F5800010BD7C
:1024F0000846420018BFD2F1807288BF00F0004049
:1025000010BDFF2141EAD050C005704780F0004067
:1025100090EA010F7FF5DDAD81F0004100F007B8D2
:1025200090EA010F48BF81F000413FF5D2AD421A59
:1025300004D882F00042A0EB020011444FEAD052CE
:102540004FF07F4C1CEA410FA2EBD15318BF9CEA1D
:10255000026F4AD04FF0004C4CEA00204CEA0121B7
:1025600021FA03FCB0EB0C0C0FD412F0FE0F36D0A6
:102570005FEA4C001DD5001240EBC25038BF7047D7
:102580001CF03F0F18BF70470BE0A2F101025FEA99
:102590001C2040EBC25038BF70471CF07F0F18BFA3
:1025A0007047C3F12003994014BF401E20F0010082
:1025B000704780084FEA122308BF7047B0FA80FCCA
:1025C000A2EB0C02CCF1280C60FA0CF093EA122F6B
:1025D00004BF00EBC25070474FEAC3707047130A44
:1025E0005FEADC1008BF7047F6E79CEA026F04D090
:1025F00010EA5C0F08BF0020704710B5FFF73BFFE3
:1026000040DFF63E81F0004070470000000000000F
:10261000000000000000000000003F40000000003B
:1026200000000000300040003000400000000900C1
:102630000BC03D000BC03D00090018C024407FE0E6
:10264000224031800000180024C01B000D80324061
:10265000018003801C4027401C8007400040100080
:10266000600000000000000000000000000000000A
:102670001F80204040200000402020401F8000009C
:102680000000090006001F80060009000000040089
:1026900004003F80040004000000001000600000FF
:1026A0000000000000000400040004000400040016
:1026B00000000000004000000000000000000020BA
:1026C00001C006003800400000001F80204020406C
:1026D00020401F800000000010403FC0004000006C
:1026E000000018C021402240244018400000108003
:1026F0002040244024401B80000002000D001100F7
:102700003FC0014000003C802440244024402380FE
:1027100000001F802440244034400380000030002B
:10272000200027C03800200000001B8024402440E7
:1027300024401B8000001C0022C0224022401F8039
:102740000000000000000840000000000000000041
:1027500000000460000000000000000004000A0007
:10276000110020804040090009000900090009000B
:10277000000000004040208011000A000400180002
:10278000200023402400180000001F802040274024
:1027900029401F400000004007C039000F0001C061
:1027A000004020403FC0244024401B8000001F8088
:1027B0002040204020403080000020403FC020408A
:1027C00020401F80000020403FC024402E4030C0E9
:1027D000000020403FC024402E00300000000F00C9
:1027E0001080204022403380020020403FC004007F
:1027F00004003FC02040204020403FC020402040F7
:1028000000000060202020203FC020002000204049
:102810003FC024400B0030C0204020403FC020403B
:102820000040004000C03FC03C0003C03C003FC02F
:10283000000020403FC00C4023003FC020001F800C
:102840002040204020401F80000020403FC0244006
:102850002400180000001F802140214020E01FA01C
:10286000000020403FC02440260019C0004018C08E
:1028700024402440224031800000300020403FC0EE
:1028800020403000000020003F80004000403F809A
:10289000200020003E0001C0070038002000380062
:1028A00007C03C0007C038000000204039C00600C7
:1028B00039C0204000002000384007C038402000C8
:1028C0000000304021C02640384020C000000000F9
:1028D00000007FE0402040200000000070000C005D
:1028E0000380004000000000402040207FE0000006
:1028F0000000000020004000200000000000001048
:102900000010001000100010001000000000400037
:10291000000000000000000002800540054003C0E8
:10292000004020003FC0044004400380000000003D
:10293000038004400440064000000000038004407F
:1029400024403FC000400000038005400540034094
:102950000000000004401FC024402440200000006C
:1029600002E0055005500650042020403FC00440BE
:10297000040003C000400000044027C000400000E5
:10298000000000100010041027E0000000002040AC
:102990003FC00140070004C00440204020403FC029
:1029A00000400040000007C0040007C0040003C04E
:1029B0000000044007C00440040003C000400000C1
:1029C00003800440044003800000041007F004501A
:1029D000044003800000000003800440045007F01E
:1029E0000010044007C00240040004000000000082
:1029F00006400540054004C00000000004001F80A0
:102A0000044000400000040007800040044007C06C
:102A100000400400070004C0018006000400060016
:102A200001C0070001C006000000044006C001000C
:102A300006C0044000000410071004E001800600F6
:102A400004000000044005C00640044000000000EF
:102A5000000004007BE040200000000000000000B7
:102A6000FFF000000000000040207BE004000000B8
:102A700000004000800040002000200040000000D6
:102A80000000000000000000000000000000000046
:102A9000000000001FCC000C00000000000000003F
:102AA00008003000600008003000600000000220D4
:102AB00003FC1E20022003FC1E2002200000000058
:102AC0000E1811043FFF10840C78000000000F0066
:102AD00010840F3800C00778188400780000007850
:102AE0000F8410C411240E9800E40084000808002C
:102AF00068007000000000000000000000000000FE
:102B00000000000007E01818200440020000000048
:102B100040022004181807E00000000000000240F6
:102B2000024001800FF0018002400240000000805E
:102B3000008000800FF8008000800080000000010D
:102B4000000D000E0000000000000000000000006A
:102B500000800080008000800080008000800000F5
:102B6000000C000C0000000000000000000000004D
:102B70000006001800600180060018002000000018
:102B800007F0080810041004080807F0000000000F
:102B9000080408041FFC00040004000000000000FA
:102BA0000E0C10141024104411840E0C00000000B0
:102BB0000C1810041104110412880C70000000009D
:102BC00000E00320042408241FFC0024000000006F
:102BD0001F98108411041104108810700000000068
:102BE00007F0088811041104188800700000000024
:102BF0001C00100010FC13001C001000000000005E
:102C00000E3811441084108411440E380000000066
:102C10000700088C10441044088807F000000000EA
:102C200000000000030C030C000000000000000086
:102C3000000000010106000000000000000000008C
:102C40000080014002200410080810040000022047
:102C500002200220022002200220022000000000A8
:102C60001004080804100220014000800000000049
:102C70000E001200100C106C10800F00000003E01A
:102C80000C1813E4142417C4082807D0000000040B
:102C9000003C03C41C40074000E4001C0004100476
:102CA0001FFC1104110411040E880070000003E0E1
:102CB0000C1810041004100410081C10000010045C
:102CC0001FFC100410041004080807F00000100492
:102CD0001FFC1104110417C410040818000010048C
:102CE0001FFC1104110017C010000800000003E0D1
:102CF0000C181004100410441C780040000010044C
:102D00001FFC10840080008010841FFC1004000051
:102D1000100410041FFC1004100400000000000345
:102D20000001100110011FFE10001000000010042F
:102D30001FFC110403801464181C1004000010040C
:102D40001FFC1004000400040004000C0000100428
:102D50001FFC1F0000FC1F001FFC100400001004DB
:102D60001FFC0C04030000E010181FFC100007F00B
:102D70000808100410041004080807F000001004EC
:102D80001FFC10841080108010800F00000007F0DE
:102D9000081810241024101C080A07F20000100460
:102DA0001FFC1104110011C011300E0C00040000B2
:102DB0000E1C11041084108410441C3800001800EC
:102DC000100010041FFC1004100018000000100078
:102DD0001FF810040004000410041FF81000100075
:102DE0001E0011E0001C007013801C0010001FC0AA
:102DF000103C00E01F0000E0103C1FC00000100469
:102E0000180C163401C001C01634180C1004100040
:102E10001C00130400FC13041C0010000000080434
:102E2000101C1064108413041C041018000000000F
:102E3000000000007FFE400240024002000000004F
:102E400030000C0003800060001C00030000000044
:102E50004002400240027FFE00000000000000002F
:102E60000000200040004000400020000000000161
:102E7000000100010001000100010001000100004B
:102E800040004000200000000000000000000000A2
:102E90000098012401440144014400FC0004100096
:102EA0001FFC00880104010400880070000000007D
:102EB0000070008801040104010400880000000083
:102EC000007000880104010411081FFC00040000C8
:102ED00000F8014401440144014400C8000000001E
:102EE000010401040FFC110411041100180000007A
:102EF00000D601290129012901C901060000100499
:102F00001FFC008401000100010400FC000400001B
:102F10000104190419FC0004000400000000000072
:102F2000000300010101190119FE00000000100456
:102F30001FFC0024004001B4010C0104000000004B
:102F4000100410041FFC0004000400000000010431
:102F500001FC0104010001FC0104010000FC01046A
:102F600001FC008401000100010400FC00040000D9
:102F700000F8010401040104010400F8000001014B
:102F800001FF0085010401040088007000000000BA
:102F90000070008801040104010501FF0001010423
:102FA000010401FC00840104010001800000000014
:102FB00000CC012401240124012401980000000018
:102FC0000100010007F801040104000000000100F5
:102FD00001F8000400040004010801FC00040100E1
:102FE00001800170000C001001600180010001F0FF
:102FF000010C003001C00030010C01F001000000A4
:103000000104018C00740170018C010400000101B5
:1030100001810171000E00180160018001000000B3
:103020000184010C013401440184010C0000000002
:1030300000000000000001003EFC400240020000D1
:10304000000000000000FFFF000000000000000082
:10305000400240023EFC01000000000000000000B1
:103060006000800080004000400020002000000040
:103070000000000000000000000000000000000050
:103080000000000000000000000000000000000040
:103090000000000000000000000000000000000030
:1030A000000F80380FFE380F80380000000000004D
:1030B0000000000000000000000000000100000609
:1030C00000000C00003800003100000600000C0079
:1030D00000380000300000000000000000006180A7
:1030E0000067F807F980006180006180006180005E
:1030F00061800067F807F98000618000000000002F
:103100000000000001C0E003E0F0063008041808E9
:103110001FFFFE040E080787F00381E00000000097
:10312000000001F000060C00040408060C7001F910
:10313000C0000E00003BE000EC18070808040C1863
:103140000003E00000000001E00007F003F81804AD
:103150001C0804170807E1D003C0E00023B0003CBE
:10316000080020080000100000000000000100001E
:103170003100003200001C000000000000000000D0
:10318000000000000000000000000000000000003F
:1031900000000000000000000000000000007F00B0
:1031A00001FFC00780F00C0018100004200002008E
:1031B00000000000002000021000040C001807802E
:1031C000F001FFC0007F00000000000000000000D0
:1031D0000000000000000000000042000066000047
:1031E0006600003C0000180003FFC0001800003C0F
:1031F00000006600006600004200000000000800B9
:1032000000080000080000080000080001FFC000DE
:103210000800000800000800000800000800000086
:103220000000000100003100003200001C0000001E
:10323000000000000000000000000000000000008E
:10324000000000000000080000080000080000085E
:103250000000080000080000080000080000080046
:10326000000800000000000000000000000038001E
:1032700000380000380000000000000000000000DE
:103280000000000000000000000000000000000638
:1032900000001C000070000180000E0000380000DB
:1032A000C0000700001C000030000000000000000B
:1032B00000007F8001FFE003807006001804000812
:1032C00004000806001803807001FFE0007F800002
:1032D00000000000000000000100080100080100DB
:1032E0000803FFF807FFF8000008000008000008C6
:1032F00000000000000000000001C03802C05804B7
:103300000098040118040218040418061C1803F895
:103310001801E0F800000000000000000001C0E01B
:1033200003C0F0040008040808040808061808038D
:10333000F41801E7F00001E00000000000000000C8
:1033400000000300000D0000110000610000810872
:1033500003010807FFF80FFFF8000108000108004B
:1033600000000000000000E007FCD006080806107E
:1033700008061008061008061838060FF00607C0E1
:10338000000000000000000000003F8001FFE0039B
:1033900084300208180410080410080410080718E4
:1033A00010030FF00007C000000000000000000044
:1033B00003C0000700000600000600F80607F80634
:1033C000180006E0000700000600000000000000F2
:1033D0000001E1E003F7F0063410041808041808AF
:1033E000040C08040C0806161803F3F001C1E000F1
:1033F000000000000000F80003FC3003063804025F
:10340000080402080402080404100308F001FFC0C5
:10341000007F00000000000000000000000000002D
:1034200000000000000070380070380070380000A4
:10343000000000000000000000000000000000008C
:1034400000000000000000000000301A00301C00E6
:10345000000000000000000000000000000000006C
:1034600000000000000800001400002200004100DD
:1034700000808001004002002004001008000800C5
:1034800000000000000021000021000021000021B8
:103490000000210000210000210000210000210087
:1034A00000210000000000000000000008000804E7
:1034B0000010020020010040008080004100002236
:1034C0000000140000080000000000000003C0001D
:1034D00004C000040000080038080F380808380845
:1034E00010000C300007E00003C0000000000000E6
:1034F00000003F8000FFE0038070020F100670881C
:1035000004C088048308047F8802C090030120005F
:10351000FE400000080000180001F8003E0801C24B
:103520000007020007E20000FE00001FC80001F8CB
:1035300000003800000804000807FFF807FFF8043F
:10354000080804080804080804080806180803F412
:103550001801E7F00001E0000000000000003F80DB
:1035600001FFE00380700200180400080400080452
:1035700000080400100600200780C00000000400BE
:103580000807FFF807FFF804000804000804000813
:1035900004001802001003807001FFE0007F80002B
:1035A000000004000807FFF807FFF80408080408F3
:1035B00008040808040808043E0804000806001867
:1035C00001006000000004000807FFF807FFF8048E
:1035D0000808040800040800040800043E0006006F
:1035E00000060000018000000000000000003F8095
:1035F00001FFE003807006001804000804020804BC
:1036000002080203F00783F0000200000200040039
:103610000807FFF807FFF804080800080000080082
:1036200000080000080004080807FFF807FFF80476
:103630000008000000000000040008040008040066
:103640000807FFF807FFF804000804000804000852
:10365000000000000000000000000006000007005D
:10366000000104000104000104000307FFFE07FF3E
:10367000FC04000004000004000004000807FFF838
:1036800007FFF8040C08001800003E0004C780057E
:1036900003C80600F80400380400180000080400FD
:1036A0000807FFF807FFF8040008000008000008FA
:1036B000000008000008000008000018000060007A
:1036C000000004000807FFF807800807FC00007FDF
:1036D000C00003F80007C000780007800807FFF863
:1036E00007FFF804000804000807FFF807000803B4
:1036F000C00000E000003800001E000007000001CC
:10370000C00400F007FFF8040000000000007F8004
:1037100001FFE0038070060018040008040008069A
:10372000001803003001FFE0007F8000000004006B
:103730000807FFF807FFF804040804040004040065
:10374000040400040400060C0003F80001F000006B
:103750000000000000007F8001FFE0038070060091
:10376000880400880400C806003C03003E01FFE610
:10377000007F8400000004000807FFF807FFF8043A
:103780000808040800040C00040F00040BC0061015
:10379000F003F03801E00800000800000001E0F844
:1037A00003F030063010041808041808040C08044C
:1037B0000C080206180207F00781E00000000180F3
:1037C0000006000004000004000004000807FFF8E1
:1037D00007FFF804000804000004000006000001D0
:1037E000800004000007FFE007FFF004001800005D
:1037F000080000080000080000080000080400108D
:1038000007FFE004000004000006000007E00007D6
:10381000FE00041FE00001F80000380001E0043E53
:103820000007C00006000004000004000007E000DC
:1038300007FFC0041FF80007C007F80007FF800457
:103840003FF80007C004F800070000040000000073
:103850000004000806001807C07805F1C8003E0003
:10386000001F800463E80780F806001804000800C1
:10387000000004000006000007800007E008047C48
:1038800008001FF80007F800180804E00807000007
:1038900006000004000000000001000806003804D3
:1038A00000F80403E8040F08047C0805F00807C0CA
:1038B000080700180400600000000000000000007D
:1038C0000000000000000000003FFFFE200002207A
:1038D0000002200002200002200002000000000080
:1038E0000000000008000007000000C000003800D1
:1038F0000006000001C000003000000E00000100C2
:103900000000000000000000200002200002200053
:10391000022000022000023FFFFE00000000000025
:10392000000000000000000000000000000000088F
:1039300000001000003000002000003000001000E7
:10394000000800000000000000000000010000016D
:103950000000010000010000010000010000010062
:103960000001000001000001000001000001000052
:1039700000000000000000200000200000100000F7
:103980001000000000000000000000000000000027
:1039900000000000000000F00019F8001B180022D1
:1039A00008002608002408002410003FF8001FF833
:1039B00000000800001800000004000007FFF80FD6
:1039C000FFF0001818001008002008002008003040
:1039D00018001FF0000FC00000000000000007C02A
:1039E000001FF00018300020080020080020080008
:1039F0003C08001C100000600000000000000000F7
:103A0000000007C0001FF000381800200800200840
:103A100000200804101007FFF80FFFF0000010004E
:103A200000000000000000000007C0001FF00012AE
:103A300030002218002208002208003208001E1060
:103A4000000E200000000000000020000020080000
:103A5000200801FFF803FFF80620080420080420CE
:103A60000807200003000000000000000000000E16
:103A7000000E6E001FF30031B10020B10020B10034
:103A80003191001F13002E1E00200E003000000098
:103A90000004000807FFF80FFFF8001008002000DE
:103AA000002000002008003FF8001FF80000080078
:103AB0000000000000000000002008002008002096
:103AC00008063FF8063FF80000080000080000085C
:103AD00000000000000000000000000000000300E3
:103AE0000003002001002001002003063FFE063FE6
:103AF000FC000000000000000000000000040008BE
:103B000007FFF80FFFF8000188000300002FC00036
:103B100038F80020380020080000080000000000ED
:103B20000000000004000804000804000807FFF873
:103B30000FFFF80000080000080000080000000067
:103B40000000002008003FF8003FF80010080020A7
:103B500000003FF8003FF8001008002000003FF888
:103B6000003FF8000008000000002008003FF800B7
:103B70003FF8001008001000002000002008003F5F
:103B8000F8001FF80000080000000000000007C057
:103B9000000FF00018300030080020080020080056
:103BA0003008001830000FF00007C00000000000CF
:103BB00000002001003FFF003FFF0010110020091E
:103BC000002008002008003038001FF0000FC0005F
:103BD00000000000000007C0001FF000381800209F
:103BE00008002008002009001011001FFF003FFFFF
:103BF000000001000000002008002008002008004C
:103C00003FF8003FF80008080010080020080020D6
:103C10000000300000300000000000000000000044
:103C2000000C78001E18003308002308002108004B
:103C300021880021980030F000386000000000006A
:103C40000000200000200000200000FFF003FFF82B
:103C500000200800200800200800003000000000BC
:103C60000000000000002000003FF0007FF800008E
:103C700018000008000008002010003FF8007FF046
:103C800000001000000000000000200000300000D4
:103C90003C00003F800023F000007800007000230B
:103CA00080003C00003000002000002000003C00AC
:103CB000003FE00023F80000E0002700003E000085
:103CC0003FE00021F80001E0003E0000200000007D
:103CD00000002008002008003838003E68002780D7
:103CE0000003C8002CF80038380020180020080015
:103CF0000000000000002000003003003C01003FF5
:103D0000830023EC000070002380003C00002000B2
:103D10000020000000000000000000000038080043
:103D200020380020F80023E8002F88003E080038E3
:103D300008002018000070000000000000000000D3
:103D40000000000000000000000008000014001F38
:103D5000F7FC300006200002000000000000000018
:103D60000000000000000000000000000000000053
:103D7000FFFFFF0000000000000000000000000046
:103D800000000000000000002000023000061FF7C5
:103D9000FC0014000008000000000000000000000B
:103DA000000000000000000000180000600000405B
:103DB0000000400000200000100000080000040087
:103DC000000400000C00001000000000EC3D0008A2
:103DD00000000020100000006C010008FC3D0008FD
:103DE00010000020E8050000880100080000000025
:0C3DF0000000000000000000FFFF17EFC3
:0400000508000131BD
:00000001FF
